{
  "contractName": "greeter",
  "abi": [
    {
      "constant": false,
      "inputs": [],
      "name": "kill",
      "outputs": [],
      "payable": false,
      "stateMutability": "nonpayable",
      "type": "function"
    },
    {
      "inputs": [
        {
          "name": "_greeting",
          "type": "string"
        }
      ],
      "payable": false,
      "stateMutability": "nonpayable",
      "type": "constructor"
    },
    {
      "constant": false,
      "inputs": [
        {
          "name": "_greeting",
          "type": "string"
        }
      ],
      "name": "setGreeting",
      "outputs": [],
      "payable": false,
      "stateMutability": "nonpayable",
      "type": "function"
    },
    {
      "constant": true,
      "inputs": [],
      "name": "greet",
      "outputs": [
        {
          "name": "",
          "type": "string"
        }
      ],
      "payable": false,
      "stateMutability": "view",
      "type": "function"
    }
  ],
  "bytecode": "0x608060405234801561001057600080fd5b506040516104ce3803806104ce83398101806040528101908080518201929190505050336000806101000a81548173ffffffffffffffffffffffffffffffffffffffff021916908373ffffffffffffffffffffffffffffffffffffffff1602179055508060019080519060200190610089929190610090565b5050610135565b828054600181600116156101000203166002900490600052602060002090601f016020900481019282601f106100d157805160ff19168380011785556100ff565b828001600101855582156100ff579182015b828111156100fe5782518255916020019190600101906100e3565b5b50905061010c9190610110565b5090565b61013291905b8082111561012e576000816000905550600101610116565b5090565b90565b61038a806101446000396000f300608060405260043610610057576000357c0100000000000000000000000000000000000000000000000000000000900463ffffffff16806341c0e1b51461005c578063a413686214610073578063cfae3217146100dc575b600080fd5b34801561006857600080fd5b5061007161016c565b005b34801561007f57600080fd5b506100da600480360381019080803590602001908201803590602001908080601f01602080910402602001604051908101604052809392919081815260200183838082843782019150505050505091929192905050506101fd565b005b3480156100e857600080fd5b506100f1610217565b6040518080602001828103825283818151815260200191508051906020019080838360005b83811015610131578082015181840152602081019050610116565b50505050905090810190601f16801561015e5780820380516001836020036101000a031916815260200191505b509250505060405180910390f35b6000809054906101000a900473ffffffffffffffffffffffffffffffffffffffff1673ffffffffffffffffffffffffffffffffffffffff163373ffffffffffffffffffffffffffffffffffffffff1614156101fb576000809054906101000a900473ffffffffffffffffffffffffffffffffffffffff1673ffffffffffffffffffffffffffffffffffffffff16ff5b565b80600190805190602001906102139291906102b9565b5050565b606060018054600181600116156101000203166002900480601f0160208091040260200160405190810160405280929190818152602001828054600181600116156101000203166002900480156102af5780601f10610284576101008083540402835291602001916102af565b820191906000526020600020905b81548152906001019060200180831161029257829003601f168201915b5050505050905090565b828054600181600116156101000203166002900490600052602060002090601f016020900481019282601f106102fa57805160ff1916838001178555610328565b82800160010185558215610328579182015b8281111561032757825182559160200191906001019061030c565b5b5090506103359190610339565b5090565b61035b91905b8082111561035757600081600090555060010161033f565b5090565b905600a165627a7a72305820dcd9dbc1c9465dde335f69419312d6752eb5c8edeccecb255d7dfce8becfe6a20029",
  "source": "pragma solidity ^0.4.17;\r\ncontract mortal {\r\n    /* Define variable owner of the type address*/\r\n    address owner;\r\n\r\n    /* this function is executed at initialization and sets the owner of the contract */\r\n    function mortal() { owner = msg.sender; }\r\n\r\n    /* Function to recover the funds on the contract */\r\n    function kill() { if (msg.sender == owner) selfdestruct(owner); }\r\n}\r\n\r\ncontract greeter is mortal {\r\n    /* define variable greeting of the type string */\r\n    string greeting;\r\n\r\n    /* this runs when the contract is executed */\r\n    function greeter(string _greeting) public {\r\n        greeting = _greeting;\r\n    }\r\n    \r\n    function setGreeting(string _greeting) public {\r\n        greeting = _greeting;\r\n    }\r\n    \r\n    \r\n    /* main function */\r\n    function greet() constant returns (string) {\r\n        return greeting;\r\n    }\r\n    \r\n}",
  "sourcePath": "D:\\Laptop\\Goldman Sachs\\GS Initiative\\Edureka\\Truffle\\greeter\\contracts\\greeter.sol",
  "compiler": {
    "name": "solc",
    "version": "0.4.24+commit.e67f0147.Emscripten.clang"
  },
  "schemaVersion": "2.0.1",
  "updatedAt": "2018-07-30T16:36:36.982Z"
}